:020000040800F2
:1000000078040020C9000008E9010008EB0100089D
:1000100000000000000000000000000000000000E0
:10002000000000000000000000000000EF010008D8
:100030000000000000000000F1010008F3010008CA
:10004000F900000800000000F9000008F9000008AD
:10005000F9000008F9000008F9000008F90000089C
:1000600000000000F9000008F9000008F90000088D
:10007000F9000008F9000008F9000008000000007D
:10008000F90000080000000000000000F90000086E
:10009000F9000008F9000008F9000008F90000085C
:1000A000F9000008F9000008F900000873010008D1
:1000B000910100080348854600F0AEF9004800476A
:1000C000D1010008780400200C4880F308880C480F
:1000D0000168090E0B4A914205D10B480B4901609A
:1000E0000B480C4901600C4880470C480047FEE76C
:1000F000FEE7FEE7FEE7FEE7FEE7000078040020EB
:10010000040000001F000000181002400100000061
:100110000000014000000000C3020008B500000814
:10012000704718B50346254883420CD1244880699E
:100130000124A4032043224CA0610846FFF7F0FFEE
:100140001B206C46207018BD0268D207D20F002A0F
:100150000CD000BFC26980231A40002AFAD0018562
:1001600000BFC26980231A40002AFAD07047704746
:10017000704700B51148C06920210840002806D00A
:100180000E4820308088C1B20E48FFF7F0FF00BD56
:1001900000B50D48C06920210840002806D00A4853
:1001A00020308088C1B20948FFF7E1FF00BD7047E9
:1001B000704770477047704770477047003801407C
:1001C0000010024000000020004400401000002009
:1001D00000F077F8E122120300210248FFF7A1FFA7
:1001E00000BFFEE700440040704700BFFEE77047D5
:1001F000704770470CB5002001900090734800686C
:100200000121090408437149086000BF6F48006874
:1002100001214904084000900198401C0190009879
:10022000002804D10521090301988842EED16748CE
:100230000068012149040840002802D001200090F4
:1002400001E0002000900098012839D11120604978
:1002500008605E4840685D494860084640684860FC
:10026000084640687F21C9038843584948600846CA
:100270004068112109040843544948600846006851
:100280000121090608435149086000BF4F48006832
:100290000121490608400028F8D04C4840688008F1
:1002A00080004A494860084640680221084347499F
:1002B000486000BF454840680C2108400828F9D133
:1002C0000CBD10B541480068012108433F49086052
:1002D000084640683F4908403C4948600846006875
:1002E0003D490840394908600846006801218904F1
:1002F000884336490860084640683F21090488431E
:10030000324948600846C06A00090001C8620846D0
:10031000006BFF21543188432C4908630846406B29
:1003200040084000486300208860FFF763FF10BD6D
:10033000F8B50025002400260027244840680C2139
:1003400008400546002D04D0042D06D0082D2AD1E2
:1003500007E022482249086029E020482049086037
:1003600025E01A4840680F218904084004461748D0
:1003700040680321C90308400646A00C841C002ED7
:1003800004D118486043164908600BE00F48C06A62
:100390000007000F471C3946104800F027F860435B
:1003A0000F49086003E00D480D49086000BF00BF19
:1003B00006484068F021084000090B490D5C0848D8
:1003C0000068E84006490860F8BD000000100240DF
:1003D000002002400CB8FFF8FFFFF6FE00127A0082
:1003E0002000002000093D002400002030B50B460D
:1003F000014600202022012409E00D46D5409D42FF
:1004000005D31D469540491B254695404019154684
:10041000521E002DF1DC30BD064C0125064E05E0D4
:10042000E36807CC2B430C3C98471034B442F7D315
:10043000FFF744FE5C0400087C04000802E008C8E2
:10044000121F08C1002AFAD170477047002001E04E
:1004500001C1121F002AFBD1704700007C04000874
:1004600000000020340000003C040008B004000834
:1004700034000020440400004C0400083400002034
:100480002000000000000000000A000054000020CE
:100490002000000000000000000A0000006CDC02E8
:1004A0000000000000000000010203040607080924
:04000005080000B53A
:00000001FF
