:020000040800F2
:1000000098050020D1000008C1020008C3020008C2
:1000100000000000000000000000000000000000E0
:10002000000000000000000000000000C7020008FF
:100030000000000000000000C9020008CB02000818
:100040000101000801010008010100080101000888
:100050000101000801010008010100080101000878
:100060000101000801010008010100080101000868
:100070000101000801010008010100080101000858
:100080000101000801010008010100080101000848
:100090000101000801010008010100080101000838
:1000A0000101000801010008010100087B010008AE
:1000B00099010008B70100080101000803488546BE
:1000C00000F016FA00480047A90200089805002031
:1000D0000C4880F308880C480168090E0B4A9142CD
:1000E00005D10B480B4901600B480C4901600C48D5
:1000F00080470C480047FEE7FEE7FEE7FEE7FEE725
:10010000FEE7000098050020040000001F0000002A
:100110001810024001000000000001400000000033
:100120009B030008BD000008704718B503464D4802
:1001300083420CD14C4880690124A40320434A4CDB
:10014000A0610846FFF7F0FF1B206C46207018BD29
:100150000268D207D20F002A0CD000BFC2698023E8
:100160001A40002AFAD0018500BFC26980231A40D4
:10017000002AFAD070477047704700B53948C06907
:1001800020210840002806D0364820308088C1B29F
:100190003648FFF7F0FF00BD00B53548C0692021A3
:1001A0000840002806D0324820308088C1B231484B
:1001B000FFF7E1FF00BD00B52F48C06920210840CE
:1001C000002806D02C4820308088C1B22B48FFF789
:1001D000D2FF2B48C06920210840002806D02848BB
:1001E00020308088C1B22748FFF7C5FF2648C06984
:1001F00020210840002806D0234820308088C1B242
:100200002248FFF7B8FF2248C06920210840002893
:1002100006D01F4820308088C1B21E48FFF7ABFFD0
:100220001D48C06920210840002806D01A48203007
:100230008088C1B21948FFF79EFF1948C069202184
:100240000840002806D0164820308088C1B21548E2
:10025000FFF791FF00BD70477047704770477047C8
:100260007047704700380140001002400000002035
:100270000044004010000020004800402000002002
:10028000004C0040300000200050004040000020A2
:1002900000140140500000200018014060000020C0
:1002A000001C01407000002000F077F8E1221203EA
:1002B00000210248FFF739FF00BFFEE7004400407D
:1002C000704700BFFEE77047704770470CB50020CD
:1002D00001900090734800680121090408437149A6
:1002E000086000BF6F480068012149040840009081
:1002F0000198401C01900098002804D105210903B1
:1003000001988842EED167480068012149040840FD
:10031000002802D00120009001E000200090009809
:10032000012839D11120604908605E4840685D4964
:100330004860084640684860084640687F21C90315
:100340008843584948600846406811210904084319
:10035000544948600846006801210906084351498C
:10036000086000BF4F480068012149060840002886
:10037000F8D04C484068800880004A4948600846E8
:100380004068022108434749486000BF454840682B
:100390000C2108400828F9D10CBD10B5414800686F
:1003A000012108433F490860084640683F4908402A
:1003B0003C494860084600683D49084039490860A2
:1003C00008460068012189048843364908600846C8
:1003D00040683F2109048843324948600846C06AA2
:1003E00000090001C8620846006BFF2154318843B0
:1003F0002C4908630846406B4008400048630020D1
:100400008860FFF763FF10BDF8B5002500240026C3
:100410000027244840680C2108400546002D04D0E0
:10042000042D06D0082D2AD107E022482249086071
:1004300029E020482049086025E01A4840680F213B
:10044000890408400446174840680321C90308404E
:100450000646A00C841C002E04D11848604316499F
:1004600008600BE00F48C06A0007000F471C3946C0
:10047000104800F027F860430F49086003E00D487A
:100480000D49086000BF00BF06484068F0210840E1
:1004900000090B490D5C08480068E84006490860FF
:1004A000F8BD000000100240002002400CB8FFF828
:1004B000FFFFF6FE00127A008000002000093D00D8
:1004C0008400002030B50B46014600202022012484
:1004D00009E00D46D5409D4205D31D469540491B78
:1004E0002546954040191546521E002DF1DC30BDC1
:1004F000064C0125064E05E0E36807CC2B430C3C77
:1005000098471034B442F7D3FFF7DCFD34050008F8
:100510005405000802E008C8121F08C1002AFAD1D9
:1005200070477047002001E001C1121F002AFBD173
:1005300070470000540500080000002094000000EF
:1005400014050008E80500089400002004050000D8
:100550002405000894000020200000000000000096
:10056000000A0000B400002020000000000000008D
:10057000000A0000D400002020000000000000005D
:10058000000A0000F400002020000000000000002D
:10059000000A0000140100202000000000000000FC
:1005A000000A0000340100202000000000000000CC
:1005B000000A00005401002020000000000000009C
:1005C000000A00007401002020000000000000006C
:1005D000000A0000006CDC020000000000000000C7
:0805E0000102030406070809EB
:04000005080000BD32
:00000001FF
