:020000040800F2
:1000000038040020D1000008890200088B02000893
:1000100000000000000000000000000000000000E0
:100020000000000000000000000000008F02000837
:100030000000000000000000910200089302000888
:100040000101000801010008010100080101000888
:100050000101000801010008010100080101000878
:100060000101000801010008010100080101000868
:100070000101000801010008010100080101000858
:100080000101000801010008010100080101000848
:100090000101000801010008010100080101000838
:1000A00001010008010100080101000853010008D6
:1000B000710100088F01000801010008034885460E
:1000C00000F0FAF9004800477102000838040020E7
:1000D0000C4880F308880C480168090E0B4A9142CD
:1000E00005D10B480B4901600B480C4901600C48D5
:1000F00080470C480047FEE7FEE7FEE7FEE7FEE725
:10010000FEE7000038040020040000001F0000008B
:100110001810024001000000000001400000000033
:1001200063030008BD00000870470268D207D20FC1
:10013000002A0CD000BFC26980231A40002AFAD0DE
:10014000018500BFC26980231A40002AFAD0704797
:10015000704700B53648C06920210840002806D005
:10016000334820308088C1B23248FFF7F1FF00BD2C
:1001700000B53148C06920210840002806D02E482B
:1001800020308088C1B22D48FFF7E2FF00BD00B5E6
:100190002B48C06920210840002806D0284820307C
:1001A0008088C1B22748FFF7D3FF2748C0692021C4
:1001B0000840002806D0244820308088C1B2234857
:1001C000FFF7C6FF2248C06920210840002806D05A
:1001D0001F4820308088C1B21E48FFF7B9FF1E4873
:1001E000C06920210840002806D01B4820308088A4
:1001F000C1B21A48FFF7ACFF1948C0692021084076
:10020000002806D0164820308088C1B21548FFF774
:100210009FFF1548C06920210840002806D01248D9
:1002200020308088C1B21148FFF792FF00BD000066
:10023000003801400000002000440040040000207D
:100240000048004008000020004C00400C00002046
:100250000050004010000020001401401400002055
:100260000018014018000020001C01401C00002064
:1002700000F077F8E122120300210248FFF754FF53
:1002800000BFFEE700440040704700BFFEE7704734
:10029000704770470CB500200190009073480068CB
:1002A0000121090408437149086000BF6F480068D4
:1002B00001214904084000900198401C01900098D9
:1002C000002804D10521090301988842EED167482E
:1002D0000068012149040840002802D00120009054
:1002E00001E0002000900098012839D111206049D8
:1002F00008605E4840685D4948600846406848605C
:10030000084640687F21C903884358494860084629
:1003100040681121090408435449486008460068B0
:100320000121090608435149086000BF4F48006891
:100330000121490608400028F8D04C484068800850
:1003400080004A49486008464068022108434749FE
:10035000486000BF454840680C2108400828F9D192
:100360000CBD10B541480068012108433F490860B1
:10037000084640683F4908403C49486008460068D4
:100380003D49084039490860084600680121890450
:10039000884336490860084640683F21090488437D
:1003A000324948600846C06A00090001C862084630
:1003B000006BFF21543188432C4908630846406B89
:1003C00040084000486300208860FFF763FF10BDCD
:1003D000F8B50025002400260027244840680C2199
:1003E00008400546002D04D0042D06D0082D2AD142
:1003F00007E022482249086029E020482049086097
:1004000025E01A4840680F2189040840044617482F
:1004100040680321C90308400646A00C841C002E36
:1004200004D118486043164908600BE00F48C06AC1
:100430000007000F471C3946104800F027F86043BA
:100440000F49086003E00D480D49086000BF00BF78
:1004500006484068F021084000090B490D5C084837
:100460000068E84006490860F8BD0000001002403E
:10047000002002400CB8FFF8FFFFF6FE00127A00E1
:100480002000002000093D002400002030B50B466C
:10049000014600202022012409E00D46D5409D425E
:1004A00005D31D469540491B2546954040191546E4
:1004B000521E002DF1DC30BD064C0125064E05E034
:1004C000E36807CC2B430C3C98471034B442F7D375
:1004D000FFF7F8FDFC0400081C05000802E008C84E
:1004E000121F08C1002AFAD170477047002001E0AE
:1004F00001C1121F002AFBD1704700001C05000833
:100500000000002034000000DC0400085005000852
:100510003400002004040000EC0400080000000087
:1005200000000000000000000000000000000000CB
:10053000000000000000000000000000006CDC0271
:100540000000000000000000010203040607080983
:04000005080000BD32
:00000001FF
