:020000040800F2
:1000000018040020D1000008310100083301000865
:1000100000000000000000000000000000000000E0
:100020000000000000000000000000003701000890
:100030000000000000000000390100083B0100083A
:100040000101000801010008010100080101000888
:100050000101000801010008010100080101000878
:100060000101000801010008010100080101000868
:100070000101000801010008010100080101000858
:100080000101000801010008010100080101000848
:100090000101000801010008010100080101000838
:1000A0000101000801010008010100080101000828
:1000B000010100080101000801010008034885460C
:1000C00000F04EF9004800472901000818040020FC
:1000D0000C4880F308880C480168090E0B4A9142CD
:1000E00005D10B480B4901600B480C4901600C48D5
:1000F00080470C480047FEE7FEE7FEE7FEE7FEE725
:10010000FEE7000018040020040000001F000000AB
:100110001810024001000000000001400000000033
:100120000B020008BD00000800F06FF800BFFEE7FA
:10013000704700BFFEE77047704770470CB500205E
:100140000190009073480068012109040843714937
:10015000086000BF6F480068012149040840009012
:100160000198401C01900098002804D10521090342
:1001700001988842EED1674800680121490408408F
:10018000002802D00120009001E00020009000989B
:10019000012839D11120604908605E4840685D49F6
:1001A0004860084640684860084640687F21C903A7
:1001B00088435849486008464068112109040843AB
:1001C000544948600846006801210906084351491E
:1001D000086000BF4F480068012149060840002818
:1001E000F8D04C484068800880004A49486008467A
:1001F0004068022108434749486000BF45484068BD
:100200000C2108400828F9D10CBD10B54148006800
:10021000012108433F490860084640683F490840BB
:100220003C494860084600683D4908403949086033
:100230000846006801218904884336490860084659
:1002400040683F2109048843324948600846C06A33
:1002500000090001C8620846006BFF215431884341
:100260002C4908630846406B400840004863002062
:100270008860FFF763FF10BDF8B500250024002655
:100280000027244840680C2108400546002D04D072
:10029000042D06D0082D2AD107E022482249086003
:1002A00029E020482049086025E01A4840680F21CD
:1002B000890408400446174840680321C9030840E0
:1002C0000646A00C841C002E04D118486043164931
:1002D00008600BE00F48C06A0007000F471C394652
:1002E000104800F027F860430F49086003E00D480C
:1002F0000D49086000BF00BF06484068F021084073
:1003000000090B490D5C08480068E8400649086090
:10031000F8BD000000100240002002400CB8FFF8B9
:10032000FFFFF6FE00127A000000002000093D00E9
:100330000400002030B50B46014600202022012495
:1003400009E00D46D5409D4205D31D469540491B09
:100350002546954040191546521E002DF1DC30BD52
:10036000064C0125064E05E0E36807CC2B430C3C08
:1003700098471034B442F7D3FFF7A4FEA403000853
:10038000C403000802E008C8121F08C1002AFAD1FD
:1003900070477047002001E001C1121F002AFBD105
:1003A00070470000C4030008000000201400000093
:1003B00084030008D803000814000020040400008F
:1003C00094030008006CDC02000000000000000044
:0803D0000102030406070809FD
:04000005080000BD32
:00000001FF
