:020000040800F2
:1000000018040020D1000008D9030008DB03000811
:1000100000000000000000000000000000000000E0
:10002000000000000000000000000000DF030008E6
:100030000000000000000000E1030008E3030008E6
:100040000101000801010008010100080101000888
:100050000101000801010008010100080101000878
:100060000101000801010008010100080101000868
:100070000101000801010008010100080101000858
:100080000101000801010008010100080101000848
:100090000101000801010008010100080101000838
:1000A0000101000801010008010100080101000828
:1000B000010100080101000801010008034885460C
:1000C00000F0A2FA004800478D0300081804002041
:1000D0000C4880F308880C480168090E0B4A9142CD
:1000E00005D10B480B4901600B480C4901600C48D5
:1000F00080470C480047FEE7FEE7FEE7FEE7FEE725
:10010000FEE7000018040020040000001F000000AB
:100110001810024001000000000001400000000033
:10012000B3040008BD000008F0B50446002033E029
:10013000012585400D40002D00D12BE0E5684700EA
:100140000326BE40B5434700059EBE403543E560EB
:10015000256847000326BE40B54346001746B74012
:100160003D432560012A01D0022A12D1A58801262B
:100170008640B5431E468640B6B23543A580A56885
:1001800047000326BE40B5434700069EBE403543A8
:10019000A56000BF451CE8B21028C9DBF0BD0146D0
:1001A0000920C006081A8001000C704700B50246FD
:1001B0001046FFF7F4FF01461131012088407249D3
:1001C000496908437049486100BDFFB582B00546E2
:1001D0000C4616460B9F002C01D106B0F0BD2846F8
:1001E000FFF7E4FF0C98009701903246214628461D
:1001F000059BFFF799FF00BFEFE7FFB582B005460B
:100200000E461F46002E01D106B0F0BD2846FFF76E
:10021000CDFF00241BE00120A0403040002800D189
:1002200014E0E00881002846203040586107CA0EDB
:100230000F21914088436107CA0E0C9991400843F1
:10024000E1088A0029462031885000BF641C102C28
:10025000E1D30B9800970190022231462846049B77
:10026000FFF762FF00BFCFE730B5024600200CE089
:10027000012383400B40002B05D013684500032465
:10028000AC4023431360431CD8B21028F0DB30BDD0
:1002900030B5024600200CE0012383400B40002BC8
:1002A00005D0146845000323AB409C431460431CF5
:1002B000D8B21028F0DB30BD30B50246002010E087
:1002C000012383400B40002B09D013684500032411
:1002D000AC40A34345000124AC4023431360431CBE
:1002E000D8B21028ECDB30BD30B5024600200CE05F
:1002F000012383400B40002B05D0136845000324E5
:10030000AC4023431360431CD8B21028F0DB30BD4F
:1003100070B50346002012E0012484400C40002CFC
:1003200000D10AE0DC6846000325B540AC43460036
:100330001546B5402C43DC6000BF441CE0B21028D9
:10034000EADB70BD01231B040B431A46C261C16185
:10035000C261C369C36970470146002002E0421CC4
:1003600090B249100129FADC704700B502461046E8
:10037000FFF715FF11300121814003484069884390
:100380000149486100BD0000001002400EB500F0B8
:1003900090F80020009003460122202101900920BE
:1003A000C006FFF712FF2020094908810FE009204D
:1003B000C006808A202148400921C9068882054854
:1003C000029000BF0298411E02910028FAD1EEE788
:1003D0002000004840420F00704700BFFEE7704712
:1003E000704770470CB5002001900090734800687A
:1003F0000121090408437149086000BF6F48006883
:1004000001214904084000900198401C0190009887
:10041000002804D10521090301988842EED16748DC
:100420000068012149040840002802D00120009002
:1004300001E0002000900098012839D11120604986
:1004400008605E4840685D4948600846406848600A
:10045000084640687F21C9038843584948600846D8
:10046000406811210904084354494860084600685F
:100470000121090608435149086000BF4F48006840
:100480000121490608400028F8D04C4840688008FF
:1004900080004A49486008464068022108434749AD
:1004A000486000BF454840680C2108400828F9D141
:1004B0000CBD10B541480068012108433F49086060
:1004C000084640683F4908403C4948600846006883
:1004D0003D490840394908600846006801218904FF
:1004E000884336490860084640683F21090488432C
:1004F000324948600846C06A00090001C8620846DF
:10050000006BFF21543188432C4908630846406B37
:1005100040084000486300208860FFF763FF10BD7B
:10052000F8B50025002400260027244840680C2147
:1005300008400546002D04D0042D06D0082D2AD1F0
:1005400007E022482249086029E020482049086045
:1005500025E01A4840680F218904084004461748DE
:1005600040680321C90308400646A00C841C002EE5
:1005700004D118486043164908600BE00F48C06A70
:100580000007000F471C3946104800F027F8604369
:100590000F49086003E00D480D49086000BF00BF27
:1005A00006484068F021084000090B490D5C0848E6
:1005B0000068E84006490860F8BD000000100240ED
:1005C000002002400CB8FFF8FFFFF6FE00127A0090
:1005D0000000002000093D000400002030B50B465B
:1005E000014600202022012409E00D46D5409D420D
:1005F00005D31D469540491B254695404019154693
:10060000521E002DF1DC30BD064C0125064E05E0E2
:10061000E36807CC2B430C3C98471034B442F7D323
:10062000FFF750FD4C0600086C06000802E008C801
:10063000121F08C1002AFAD170477047002001E05C
:1006400001C1121F002AFBD1704700006C06000890
:1006500000000020140000002C060008800600089E
:1006600014000020040400003C060008006CDC02BA
:100670000000000000000000010203040607080952
:04000005080000BD32
:00000001FF
