:020000040800F2
:10000000D8040020D50000083D0200083F02000887
:1000100000000000000000000000000000000000E0
:100020000000000000000000000000004302000883
:100030000000000000000000450200084702000820
:100040000501000805010008050100080501000878
:100050000501000805010008050100080501000868
:100060000501000805010008050100080501000858
:100070000501000805010008050100080501000848
:100080000501000805010008050100080501000838
:100090000501000805010008050100080501000828
:1000A0000501000805010008050100087F0100089E
:1000B0009D010008BB0100080501000805010008BA
:1000C0000348854600F0D2F90048004725020008A1
:1000D000D80400200C4880F308880C480168090EF9
:1000E0000B4A914205D10B480B4901600B480C4962
:1000F00001600C4880470C480047FEE7FEE7FEE73A
:10010000FEE7FEE7FEE70000D80400200400000040
:100110001F00000018100240010000000000014014
:100120000000000017030008C1000008704718B560
:100130000346334883420CD1324880690124A4032A
:100140002043304CA0610846FFF7F0FF1B206C46AF
:10015000207018BD0268D207D20F002A0CD000BF51
:10016000C26980231A40002AFAD0018500BFC26903
:1001700080231A40002AFAD070477047704700B5B4
:100180001F48C06920210840002806D01C482030A4
:100190008088C1B21C48FFF7F0FF00BD00B51B48C6
:1001A000C06920210840002806D0184820308088E7
:1001B000C1B21748FFF7E1FF00BD00B51548C0699F
:1001C00020210840002806D0124820308088C1B283
:1001D0001148FFF7D2FF1148C069202108400028CC
:1001E00006D00E4820308088C1B20D48FFF7C5FF09
:1001F00000BD704770477047704770477047704741
:10020000003801400010024000000020004400407F
:10021000100000200048004020000020004C00405A
:100220003000002000F077F8E1221203002102489C
:10023000FFF77DFF00BFFEE700440040704700BFAE
:10024000FEE77047704770470CB5002001900090A2
:10025000734800680121090408437149086000BF20
:100260006F48006801214904084000900198401C33
:1002700001900098002804D10521090301988842C3
:10028000EED167480068012149040840002802D0E7
:100290000120009001E0002000900098012839D151
:1002A0001120604908605E4840685D494860084622
:1002B00040684860084640687F21C9038843584920
:1002C00048600846406811210904084354494860C1
:1002D000084600680121090608435149086000BF2B
:1002E0004F4800680121490608400028F8D04C48D2
:1002F0004068800880004A494860084640680221FA
:1003000008434749486000BF454840680C21084001
:100310000828F9D10CBD10B54148006801210843F7
:100320003F490860084640683F4908403C494860EA
:10033000084600683D490840394908600846006899
:1003400001218904884336490860084640683F21F6
:1003500009048843324948600846C06A0009000120
:10036000C8620846006BFF21543188432C4908635A
:100370000846406B40084000486300208860FFF753
:1003800063FF10BDF8B5002500240026002724488F
:1003900040680C2108400546002D04D0042D06D0ED
:1003A000082D2AD107E022482249086029E0204888
:1003B0002049086025E01A4840680F218904084058
:1003C0000446174840680321C90308400646A00CAC
:1003D000841C002E04D118486043164908600BE0C5
:1003E0000F48C06A0007000F471C3946104800F04C
:1003F00027F860430F49086003E00D480D49086085
:1004000000BF00BF06484068F021084000090B49C2
:100410000D5C08480068E84006490860F8BD000027
:1004200000100240002002400CB8FFF8FFFFF6FE6B
:1004300000127A004000002000093D004400002026
:1004400030B50B46014600202022012409E00D466C
:10045000D5409D4205D31D469540491B25469540F4
:1004600040191546521E002DF1DC30BD064C012509
:10047000064E05E0E36807CC2B430C3C984710344C
:10048000B442F7D3FFF720FEB0040008D004000800
:1004900002E008C8121F08C1002AFAD1704770474D
:1004A000002001E001C1121F002AFBD170470000AB
:1004B000D004000800000020540000009004000850
:1004C000240500085400002084040000A004000853
:1004D000540000202000000000000000000A00007E
:1004E000740000202000000000000000000A00004E
:1004F000940000202000000000000000000A00001E
:10050000B40000202000000000000000000A0000ED
:10051000006CDC0200000000000000000102030487
:0405200006070809B9
:04000005080000C12E
:00000001FF
