:020000040800F2
:1000000018040020D100000825090008270900086D
:1000100000000000000000000000000000000000E0
:100020000000000000000000000000002B09000894
:1000300000000000000000002D0900082F09000842
:100040000101000801010008010100080101000888
:10005000010100084D0700087D070008AD070008F2
:100060000101000801010008010100080101000868
:100070000101000801010008010100080101000858
:100080000101000801010008010100080101000848
:100090000101000801010008010100080101000838
:1000A0000101000801010008010100080101000828
:1000B000010100080101000801010008034885460C
:1000C00000F048FD00480047D5080008180400204B
:1000D0000C4880F308880C480168090E0B4A9142CD
:1000E00005D10B480B4901600B480C4901600C48D5
:1000F00080470C480047FEE7FEE7FEE7FEE7FEE725
:10010000FEE7000018040020040000001F000000AB
:100110001810024001000000000001400000000033
:10012000FF090008BD00000800218278002A27D0BE
:10013000274A03231B02D21803789B109B00D15837
:1001400002789207D30EFF229A400B46934319463A
:1001500042789207120E03789B07DB0E9A401143F8
:100160001B4A03231B02D21803789B109B00D1501B
:100170000278D306DB0E01229A40154B1A6007E085
:100180000278D306DB0E01229A40114B80331A60AD
:100190007047002905D00F4A126902430D4B1A61BE
:1001A00004E00C4A126982430A4B1A617047042822
:1001B00006D10949096904221143074A116105E082
:1001C0000549096904229143034A116170470000FF
:1001D00000E100E000ED00E000E000E0F0B50446E2
:1001E000002033E0012585400D40002D00D12BE09B
:1001F000E56847000326BE40B5434700059EBE4064
:100200003543E560256847000326BE40B5434600F8
:100210001746B7403D432560012A01D0022A12D17A
:10022000A58801268640B5431E468640B6B23543B2
:10023000A580A56847000326BE40B5434700069E3B
:10024000BE403543A56000BF451CE8B21028C9DB9D
:10025000F0BD0921C906884206D1AF49496901228A
:1002600052041143AC4A5161AC49884205D1AA49B4
:10027000496902021143A84A5161A949884205D13E
:10028000A549496902021143A34A5161A54988421F
:1002900006D1A14949690122120511439E4A5161C3
:1002A000A149884205D19C494969420211439A4AB1
:1002B00051619E49884206D19749496901229205B8
:1002C0001143954A51617047FFB582B005460C460F
:1002D00016460B9F002C01D106B0F0BD2846FFF753
:1002E000B8FF0C9800970190324621462846059B9E
:1002F000FFF774FF00BFEFE7FFB582B005460E467B
:100300001F46002E01D106B0F0BD2846FFF7A1FF21
:1003100000241BE00120A0403040002800D114E060
:10032000E00881002846203040586107CA0E0F219E
:10033000914088436107CA0E0C9991400843E10837
:100340008A0029462031885000BF641C102CE1D35C
:100350000B9800970190022231462846049BFFF734
:100360003DFF00BFCFE730B5024600200CE001237F
:1003700083400B40002B05D0136845000324AC409C
:1003800023431360431CD8B21028F0DB30BD30B5D6
:10039000024600200CE0012383400B40002B05D0D7
:1003A000146845000323AB409C431460431CD8B23F
:1003B0001028F0DB30BD30B50246002010E00123EC
:1003C00083400B40002B09D0136845000324AC4048
:1003D000A34345000124AC4023431360431CD8B21F
:1003E0001028ECDB30BD30B5024600200CE00123C4
:1003F00083400B40002B05D0136845000324AC401C
:1004000023431360431CD8B21028F0DB30BD70B515
:100410000346002012E0012484400C40002C00D14F
:100420000AE0DC6846000325B540AC4346001546AB
:10043000B5402C43DC6000BF441CE0B21028EADB6E
:1004400070BD01231B040B431A46C261C161C26126
:10045000C369C3697047014600200922D206914250
:1004600000D100BF2D4A914200D101202C4A914277
:1004700000D102202B4A914200D103202A4A914206
:1004800000D10420294A914200D10520704701463D
:10049000002002E0421C90B249100129FADC7047AA
:1004A0000921C906884206D11B4949690122520423
:1004B0009143194A51611949884205D11649496940
:1004C00002029143144A51611549884205D11249EB
:1004D000496902029143104A51611249884206D18A
:1004E0000D4949690122120591430B4A51610E4998
:1004F000884205D10849496942029143064A51613F
:100500000A49884206D1044949690122920591436A
:10051000014A516170470000001002400004004889
:1005200000080048000C0048001000480014004873
:10053000F7B586B00C461646002C03D0601E20404E
:10054000002818D0002712E00120B84020400028E1
:100550000BD00120B84081B232460698FFF7E8FF81
:10056000002802D0012009B0F0BD781CC7B2102FBE
:10057000EADB0020F7E7D44800682040002804D1D7
:10058000D14840682040002801D00120EBE7FF213E
:100590000131601A8C423FD012DC102C38D008DCBC
:1005A000012C2DD0022C2CD0042C2DD0082C3DD188
:1005B0002BE0202C2DD0402C2CD0802C36D12AE0C2
:1005C0000F221202811A90422AD00DDCFF38013826
:1005D000002822D0FF38FF38023800281ED0012121
:1005E0008902401A22D11AE001200003081A18D00B
:1005F00001214903401A15D04900401A16D112E0D2
:1006000000BF0520029013E000BF062002900FE01B
:1006100000BF00BF00BF00BF00BF00BF00BF00BFE2
:1006200000BF00BF00BF0720029001E001209AE751
:1006300000BF012E02D10120049006E0002E02D15D
:100640000220049001E000200490002104980B4651
:100650000A460191009021460698FFF735FE204694
:10066000FFF715FFC5B20698FFF7F5FEC0B203907D
:100670009648806901210843944988619448A910EB
:1006800089004058A9070A0F0F21914088439049DB
:10069000AA10920088500846A91089004158A8075E
:1006A000020F0398904001438948AA10920081509C
:1006B00085480068A0438449086008464068A04314
:1006C000486008460068204308600846C068A043A8
:1006D000C86008468068A0438860012E04D108469F
:1006E000C0682043C86010E0002E05D176488068BD
:1006F00020437549886008E07348C0682043724908
:10070000C86008468068204388606946029808757A
:100710000321684641750121817505A8FFF704FD95
:10072000002020E70146684800688843664A106058
:1007300010464068884350601046C0688843D060C7
:1007400010468068884390600020704710B55E486E
:100750004069C007C00F002804D001205A494861F1
:1007600000F0CFF85848406902210840002804D022
:1007700002205549486100F0C4F810BD10B5524838
:10078000406904210840002804D004204E494861F3
:1007900000F0B7F84C48406908210840002804D010
:1007A00008204949486100F0ACF810BD10B5464832
:1007B000406910210840002804D0102042494861B7
:1007C00000F09FF84048406920210840002804D0EC
:1007D00020203D49486100F094F83B4840694021A1
:1007E0000840002804D040203749486100F089F8CB
:1007F0003548406980210840002804D080203249D3
:10080000486100F07EF830484069FF21013108401E
:10081000002804D008462C49486100F072F82A48A4
:100820004069012149020840002804D008462649B1
:10083000486100F066F824484069012189020840B7
:10084000002804D008462049486100F05AF81E48A4
:1008500040690121C9020840002804D008461A490D
:10086000486100F04EF8184840690121090308402A
:10087000002804D008461449486100F042F81248A4
:100880004069012149030840002804D008460E4968
:10089000486100F036F80C4840690121890308409E
:1008A000002804D008460849486100F02AF80648A4
:1008B00040690121C9030840002804D008460249C4
:1008C000486100F01EF810BD000401400010024015
:1008D000080001401CB500F092F80020009003468B
:1008E0000122202101900920C006FFF7EDFC202005
:1008F0000A490881012201020948FFF719FE00BFD9
:10090000FEE701214903884207D10921C906898AE6
:10091000202251400922D2069182704720000048CF
:1009200000080048704700BFFEE7704770477047F7
:100930000CB5002001900090734800680121090463
:1009400008437149086000BF6F48006801214904ED
:10095000084000900198401C01900098002804D1A4
:100960000521090301988842EED1674800680121FA
:1009700049040840002802D00120009001E0002036
:1009800000900098012839D11120604908605E4824
:1009900040685D49486008464068486008464068CD
:1009A0007F21C9038843584948600846406811219F
:1009B00009040843544948600846006801210906B3
:1009C00008435149086000BF4F48006801214906AB
:1009D00008400028F8D04C484068800880004A4908
:1009E000486008464068022108434749486000BF04
:1009F000454840680C2108400828F9D10CBD10B5C5
:100A000041480068012108433F49086008464068A2
:100A10003F4908403C494860084600683D49084055
:100A2000394908600846006801218904884336492D
:100A30000860084640683F210904884332494860FD
:100A40000846C06A00090001C8620846006BFF2121
:100A5000543188432C4908630846406B40084000E5
:100A6000486300208860FFF763FF10BDF8B50025DC
:100A7000002400260027244840680C210840054631
:100A8000002D04D0042D06D0082D2AD107E02248DD
:100A90002249086029E020482049086025E01A48DA
:100AA00040680F2189040840044617484068032124
:100AB000C90308400646A00C841C002E04D1184827
:100AC0006043164908600BE00F48C06A0007000F3A
:100AD000471C3946104800F027F860430F4908606A
:100AE00003E00D480D49086000BF00BF064840689C
:100AF000F021084000090B490D5C08480068E840F7
:100B000006490860F8BD00000010024000200240C5
:100B10000CB8FFF8FFFFF6FE00127A00000000207C
:100B200000093D000400002030B50B4601460020BE
:100B30002022012409E00D46D5409D4205D31D46E3
:100B40009540491B2546954040191546521E002DDB
:100B5000F1DC30BD064C0125064E05E0E36807CC0C
:100B60002B430C3C98471034B442F7D3FFF7AAFA52
:100B7000980B0008B80B000802E008C8121F08C153
:100B8000002AFAD170477047002001E001C1121F0E
:100B9000002AFBD170470000B80B000800000020BD
:100BA00014000000780B0008CC0B00081400002093
:100BB00004040000880B0008006CDC020000000048
:0C0BC00000000000010203040607080901
:04000005080000BD32
:00000001FF
